{
  "_format": "hh3-artifact-1",
  "contractName": "AIJudgeCommitReveal",
  "sourceName": "contracts/AIJudgeCommitReveal.sol",
  "abi": [
    {
      "anonymous": false,
      "inputs": [
        {
          "indexed": true,
          "internalType": "uint256",
          "name": "bountyId",
          "type": "uint256"
        },
        {
          "indexed": false,
          "internalType": "bytes",
          "name": "aiReview",
          "type": "bytes"
        }
      ],
      "name": "AllAnswersJudged",
      "type": "event"
    },
    {
      "anonymous": false,
      "inputs": [
        {
          "indexed": true,
          "internalType": "uint256",
          "name": "bountyId",
          "type": "uint256"
        },
        {
          "indexed": true,
          "internalType": "uint256",
          "name": "submissionIndex",
          "type": "uint256"
        },
        {
          "indexed": true,
          "internalType": "address",
          "name": "submitter",
          "type": "address"
        }
      ],
      "name": "AnswerRevealed",
      "type": "event"
    },
    {
      "anonymous": false,
      "inputs": [
        {
          "indexed": true,
          "internalType": "uint256",
          "name": "bountyId",
          "type": "uint256"
        },
        {
          "indexed": true,
          "internalType": "address",
          "name": "owner",
          "type": "address"
        },
        {
          "indexed": false,
          "internalType": "string",
          "name": "title",
          "type": "string"
        },
        {
          "indexed": false,
          "internalType": "uint256",
          "name": "reward",
          "type": "uint256"
        },
        {
          "indexed": false,
          "internalType": "uint256",
          "name": "deadline",
          "type": "uint256"
        }
      ],
      "name": "BountyCreated",
      "type": "event"
    },
    {
      "anonymous": false,
      "inputs": [
        {
          "indexed": true,
          "internalType": "uint256",
          "name": "bountyId",
          "type": "uint256"
        },
        {
          "indexed": true,
          "internalType": "uint256",
          "name": "submissionIndex",
          "type": "uint256"
        },
        {
          "indexed": true,
          "internalType": "address",
          "name": "submitter",
          "type": "address"
        }
      ],
      "name": "CommitmentSubmitted",
      "type": "event"
    },
    {
      "anonymous": false,
      "inputs": [
        {
          "indexed": true,
          "internalType": "uint256",
          "name": "bountyId",
          "type": "uint256"
        },
        {
          "indexed": true,
          "internalType": "uint256",
          "name": "submissionIndex",
          "type": "uint256"
        },
        {
          "indexed": true,
          "internalType": "address",
          "name": "submitter",
          "type": "address"
        }
      ],
      "name": "RevealInvalid",
      "type": "event"
    },
    {
      "anonymous": false,
      "inputs": [
        {
          "indexed": true,
          "internalType": "uint256",
          "name": "bountyId",
          "type": "uint256"
        },
        {
          "indexed": true,
          "internalType": "uint256",
          "name": "winnerIndex",
          "type": "uint256"
        },
        {
          "indexed": true,
          "internalType": "address",
          "name": "winner",
          "type": "address"
        },
        {
          "indexed": false,
          "internalType": "uint256",
          "name": "reward",
          "type": "uint256"
        }
      ],
      "name": "WinnerFinalized",
      "type": "event"
    },
    {
      "inputs": [],
      "name": "MAX_ANSWER_LENGTH",
      "outputs": [
        {
          "internalType": "uint256",
          "name": "",
          "type": "uint256"
        }
      ],
      "stateMutability": "view",
      "type": "function"
    },
    {
      "inputs": [],
      "name": "MAX_SUBMISSIONS",
      "outputs": [
        {
          "internalType": "uint256",
          "name": "",
          "type": "uint256"
        }
      ],
      "stateMutability": "view",
      "type": "function"
    },
    {
      "inputs": [],
      "name": "REVEAL_WINDOW",
      "outputs": [
        {
          "internalType": "uint256",
          "name": "",
          "type": "uint256"
        }
      ],
      "stateMutability": "view",
      "type": "function"
    },
    {
      "inputs": [
        {
          "internalType": "uint256",
          "name": "",
          "type": "uint256"
        }
      ],
      "name": "bounties",
      "outputs": [
        {
          "internalType": "address",
          "name": "owner",
          "type": "address"
        },
        {
          "internalType": "string",
          "name": "title",
          "type": "string"
        },
        {
          "internalType": "string",
          "name": "rubric",
          "type": "string"
        },
        {
          "internalType": "uint256",
          "name": "reward",
          "type": "uint256"
        },
        {
          "internalType": "uint256",
          "name": "deadline",
          "type": "uint256"
        },
        {
          "internalType": "bool",
          "name": "judged",
          "type": "bool"
        },
        {
          "internalType": "bool",
          "name": "finalized",
          "type": "bool"
        },
        {
          "internalType": "bytes",
          "name": "aiReview",
          "type": "bytes"
        },
        {
          "internalType": "uint256",
          "name": "winnerIndex",
          "type": "uint256"
        }
      ],
      "stateMutability": "view",
      "type": "function"
    },
    {
      "inputs": [
        {
          "internalType": "string",
          "name": "answer",
          "type": "string"
        },
        {
          "internalType": "bytes32",
          "name": "salt",
          "type": "bytes32"
        },
        {
          "internalType": "address",
          "name": "submitter",
          "type": "address"
        },
        {
          "internalType": "uint256",
          "name": "bountyId",
          "type": "uint256"
        }
      ],
      "name": "computeCommitment",
      "outputs": [
        {
          "internalType": "bytes32",
          "name": "",
          "type": "bytes32"
        }
      ],
      "stateMutability": "pure",
      "type": "function"
    },
    {
      "inputs": [
        {
          "internalType": "string",
          "name": "title",
          "type": "string"
        },
        {
          "internalType": "string",
          "name": "rubric",
          "type": "string"
        },
        {
          "internalType": "uint256",
          "name": "deadline",
          "type": "uint256"
        }
      ],
      "name": "createBounty",
      "outputs": [
        {
          "internalType": "uint256",
          "name": "bountyId",
          "type": "uint256"
        }
      ],
      "stateMutability": "payable",
      "type": "function"
    },
    {
      "inputs": [
        {
          "internalType": "uint256",
          "name": "bountyId",
          "type": "uint256"
        },
        {
          "internalType": "uint256",
          "name": "winnerIndex",
          "type": "uint256"
        }
      ],
      "name": "finalizeWinner",
      "outputs": [],
      "stateMutability": "nonpayable",
      "type": "function"
    },
    {
      "inputs": [
        {
          "internalType": "uint256",
          "name": "bountyId",
          "type": "uint256"
        }
      ],
      "name": "getBounty",
      "outputs": [
        {
          "internalType": "address",
          "name": "owner",
          "type": "address"
        },
        {
          "internalType": "string",
          "name": "title",
          "type": "string"
        },
        {
          "internalType": "string",
          "name": "rubric",
          "type": "string"
        },
        {
          "internalType": "uint256",
          "name": "reward",
          "type": "uint256"
        },
        {
          "internalType": "uint256",
          "name": "deadline",
          "type": "uint256"
        },
        {
          "internalType": "uint256",
          "name": "revealDeadline",
          "type": "uint256"
        },
        {
          "internalType": "bool",
          "name": "judged",
          "type": "bool"
        },
        {
          "internalType": "bool",
          "name": "finalized",
          "type": "bool"
        },
        {
          "internalType": "uint256",
          "name": "submissionCount",
          "type": "uint256"
        },
        {
          "internalType": "uint256",
          "name": "validRevealCount",
          "type": "uint256"
        },
        {
          "internalType": "uint256",
          "name": "winnerIndex",
          "type": "uint256"
        },
        {
          "internalType": "bytes",
          "name": "aiReview",
          "type": "bytes"
        }
      ],
      "stateMutability": "view",
      "type": "function"
    },
    {
      "inputs": [
        {
          "internalType": "uint256",
          "name": "bountyId",
          "type": "uint256"
        },
        {
          "internalType": "uint256",
          "name": "index",
          "type": "uint256"
        }
      ],
      "name": "getCommitment",
      "outputs": [
        {
          "internalType": "address",
          "name": "submitter",
          "type": "address"
        },
        {
          "internalType": "bytes32",
          "name": "commitmentHash",
          "type": "bytes32"
        },
        {
          "internalType": "bool",
          "name": "revealed",
          "type": "bool"
        },
        {
          "internalType": "bool",
          "name": "valid",
          "type": "bool"
        }
      ],
      "stateMutability": "view",
      "type": "function"
    },
    {
      "inputs": [
        {
          "internalType": "uint256",
          "name": "bountyId",
          "type": "uint256"
        },
        {
          "internalType": "uint256",
          "name": "index",
          "type": "uint256"
        }
      ],
      "name": "getSubmission",
      "outputs": [
        {
          "internalType": "address",
          "name": "submitter",
          "type": "address"
        },
        {
          "internalType": "string",
          "name": "answer",
          "type": "string"
        },
        {
          "internalType": "bool",
          "name": "revealed",
          "type": "bool"
        },
        {
          "internalType": "bool",
          "name": "valid",
          "type": "bool"
        }
      ],
      "stateMutability": "view",
      "type": "function"
    },
    {
      "inputs": [
        {
          "internalType": "uint256",
          "name": "bountyId",
          "type": "uint256"
        },
        {
          "internalType": "bytes",
          "name": "llmInput",
          "type": "bytes"
        }
      ],
      "name": "judgeAll",
      "outputs": [],
      "stateMutability": "nonpayable",
      "type": "function"
    },
    {
      "inputs": [],
      "name": "nextBountyId",
      "outputs": [
        {
          "internalType": "uint256",
          "name": "",
          "type": "uint256"
        }
      ],
      "stateMutability": "view",
      "type": "function"
    },
    {
      "inputs": [
        {
          "internalType": "uint256",
          "name": "bountyId",
          "type": "uint256"
        },
        {
          "internalType": "string",
          "name": "answer",
          "type": "string"
        },
        {
          "internalType": "bytes32",
          "name": "salt",
          "type": "bytes32"
        }
      ],
      "name": "revealAnswer",
      "outputs": [],
      "stateMutability": "nonpayable",
      "type": "function"
    },
    {
      "inputs": [
        {
          "internalType": "uint256",
          "name": "bountyId",
          "type": "uint256"
        },
        {
          "internalType": "bytes32",
          "name": "commitment",
          "type": "bytes32"
        }
      ],
      "name": "submitCommitment",
      "outputs": [],
      "stateMutability": "nonpayable",
      "type": "function"
    }
  ],
  "bytecode": "0x608080604052346100405760015f81905580546001600160a01b03191673532f0df0896f353d8c3dd8cc134e8129da2a3948179055611bf790816100458239f35b5f80fdfe60806040526004361015610011575f80fd5b5f3560e01c806317e931cf146100f45780632bfa7d60146100ef5780635a7722f1146100ea5780637164f0d6146100e55780638e789683146100e0578063b7ed7071146100db578063cb655fb6146100d6578063d5198a71146100d1578063d8964ee9146100cc578063dc2f8744146100c7578063e6a3d9dc146100c2578063ee8c4bbf146100bd578063fd14fad4146100b85763fd3a8329146100b3575f80fd5b610f2d565b610f11565b610e0e565b610c50565b610bb1565b610880565b610687565b6105fe565b610538565b6104a2565b6103d9565b61028a565b610142565b34610111575f3660031901126101115760206040516202a3008152f35b5f80fd5b9181601f84011215610111578235916001600160401b038311610111576020838186019501011161011157565b6060366003190112610111576001600160401b036004358181116101115761016e903690600401610115565b9160243590811161011157610187903690600401610115565b604435939134156102535761024f946102169461022960077f4e9ff8debce04524518777fdf120513b8f7e1f434da1099fd190d1aae0d495b6946101cc428611610f49565b5f549889976101da89610fa9565b5f556101ee895f52600260205260405f2090565b80546001600160a01b031916331781559261020d8b886001870161101e565b6002840161101e565b346003820155846004820155015f199055565b61023c60405192839233973491856110e6565b0390a36040519081529081906020820190565b0390f35b60405162461bcd60e51b815260206004820152600f60248201526e1c995dd85c99081c995c5d5a5c9959608a1b6044820152606490fd5b34610111576040366003190112610111576004355f818152600260205260409020546001600160a01b0391602435916102c6908416151561111b565b805f5260026020526102df8360405f205416331461115a565b7f2eb0120759ae6dd1505f3f092609ec7e75433fb2401ad648ebeb5bd4bd55e5b66103d4610315835f52600260205260405f2090565b9460036103a161039387896103886005820161034360ff8254610339828216611199565b60081c16156111d6565b610379610374600161036887600860098901986103628a548410611216565b01611259565b50015460081c60ff1690565b611286565b805461ff001916610100179055565b8160078c0155611259565b50546001600160a01b031690565b9601955f8754975516946103c45f808080858b5af16103be61133d565b5061136c565b6040519081529081906020820190565b0390a4005b34610111576040366003190112610111576004355f81815260026020526040902054602435916001600160a01b0391610415908316151561111b565b5f52600260205261024f60405f209161043b8460096008860195610362875484106113a9565b5054169160ff60016104696104508785611259565b505496838361045f8388611259565b5001541694611259565b50015460081c1690604051948594859260609295949195608085019660018060a01b031685526020850152151560408401521515910152565b34610111575f366003190112610111576020604051600a8152f35b5f5b8381106104ce5750505f910152565b81810151838201526020016104bf565b906020916104f7815180928185528580860191016104bd565b601f01601f1916010190565b929493906060926105299160018060a01b031685526080602086015260808501906104de565b94151560408401521515910152565b34610111576040806003193601126101115760ff9061024f60043560243590805f52600260205261057560018060a01b03855f205416151561111b565b5f526002602052825f209260016105998360086009880197610362895484106113a9565b500154936105dd610393878760081c1694855f146105ea5760016105d76105c08387611259565b506105d088518094819301610a42565b0382610b07565b93611259565b9151958695169185610503565b84516105f581610ae7565b5f815293611259565b34610111576080366003190112610111576004356001600160401b0381116101115761062e903690600401610115565b60443591906001600160a01b03831683036101115761067461024f9361066660405193849260208401966064359260243591896113e5565b03601f198101835282610b07565b5190206040519081529081906020820190565b34610111576060366003190112610111576004356024356001600160401b038111610111576106ba903690600401610115565b90825f5260026020526106da60018060a01b0360405f205416151561111b565b6106ec835f52600260205260405f2090565b91610710610709600485015461070481421015611413565b611455565b4210611465565b61072d610728610724600586015460ff1690565b1590565b6114a8565b6107388115156114e5565b6107466107d0821115611520565b6009830180545f199391905f5b81811061083d575b505061077284600881976103625f1984141561155e565b50600181019061078e610789610724845460ff1690565b6115a0565b60405160208101906107aa816106668c336044358c8c896113e5565b519020825460ff19166001178355905403610810576107e8946001926107dc6107e19361010061ff0019825416179055565b611259565b500161101e565b33917f30cd907c52cb0d98c4502ca97784ad8dd7813786ea1a7cce6e1594fe96c20b165f80a4005b505050505033917f96444b71a2be5eede4bc9d35d832f0d85fa10492cf23ce0e2ae4147311015dd05f80a4005b6108478184611259565b50543390610865906001600160a01b03165b6001600160a01b031690565b1461087257600101610753565b94506107729050600861075b565b34610111576040366003190112610111576004356024356001600160401b038111610111576108b3903690600401610115565b9190815f5260026020526108ed60018060a01b036108d88160405f205416151561111b565b835f52600260205260405f205416331461115a565b6108ff825f52600260205260405f2090565b61091761090f6004830154611455565b4210156115df565b600581019161092f60ff8454610339828216156114a8565b5f945f9560088401968754905b8181106109da57505060066109d5946109c36109a76109986109937fb51288ae628dca25614026175dc22a78631acc1a31f034c68c3fa241ca0fd05c9a986109c99861098c6109b699151561162b565b3691611677565b611b50565b6020808251830101910161176f565b509050819892969196156117f1565b805460ff19166001179055565b01611821565b604051918291826118e4565b0390a2005b6109e96001610368838c611259565b6109f6575b60010161093c565b91610a02600191610fa9565b9290506109ee565b90600182811c92168015610a38575b6020831014610a2457565b634e487b7160e01b5f52602260045260245ffd5b91607f1691610a19565b80545f9392610a5082610a0a565b918282526020936001916001811690815f14610ab45750600114610a76575b5050505050565b90939495505f92919252835f2092845f945b838610610aa057505050500101905f80808080610a6f565b805485870183015294019385908201610a88565b60ff19168685015250505090151560051b010191505f80808080610a6f565b634e487b7160e01b5f52604160045260245ffd5b602081019081106001600160401b03821117610b0257604052565b610ad3565b90601f801991011681019081106001600160401b03821117610b0257604052565b90610b43610b3c9260405193848092610a42565b0383610b07565b565b9998979394906101009793610b78610bac9894610b86938e6101209160018060a01b0316815281602082015201906104de565b8c810360408e0152906104de565b9460608b015260808a0152151560a0890152151560c088015286820360e08801526104de565b930152565b34610111576020366003190112610111576004355f52600260205260405f2060018060a01b0381541661024f60405191610bf983610bf28160018801610a42565b0384610b07565b60405193610c1585610c0e8160028501610a42565b0386610b07565b6003810154916004820154906005830154916007610c3560068601610b28565b9401549460405198899860ff808760081c169616948a610b45565b34610111576040366003190112610111576004355f8181526002602052604090205460243590610c8a906001600160a01b0316151561111b565b610c9c825f52600260205260405f2090565b610cab600482015442106118f5565b610cc160ff6005830154610339828216156114a8565b6008810191825492610cd5600a8510611941565b610ce0821515611984565b60095f9301925b848110610d5a5750610d329291610d1491610d006112d2565b9182525f60208301525f6040830152611a03565b610d1c6112f1565b33815290610d2861132b565b6020830152611a5a565b33917f94cdee4274a7d9f10a75de5b2a8af2dc478a097d4829621fc779705fbeb040c25f80a4005b80610d87610d6a60019387611259565b50543390610d80906001600160a01b0316610859565b14156119c3565b01610ce7565b989592610dbf610e0b9d9b98959c9996938b610dcd94602061018092839260018060a01b0316815201528c01906104de565b908a820360408c01526104de565b996060890152608088015260a0870152151560c0860152151560e08501526101008401526101208301526101408201526101608184039101526104de565b90565b3461011157602036600319011261011157610e52600435805f526002602052610e4460018060a01b0360405f205416151561111b565b5f52600260205260405f2090565b5f905f9160088201928354905b818110610ee157838061024f8582610e7d815460018060a01b031690565b91600382015492600483015490610e9382611455565b90600585015491600986015493610ec96006610ec26002610ebb600160078d01549c01610b28565b9d01610b28565b9c01610b28565b976040519b8c9b60ff808860081c169716958d610d8d565b610ef060016103688388611259565b610efd575b600101610e5f565b91610f09600191610fa9565b929050610ef5565b34610111575f3660031901126101115760205f54604051908152f35b34610111575f3660031901126101115760206040516107d08152f35b15610f5057565b60405162461bcd60e51b815260206004820152601760248201527f646561646c696e65206d757374206265206675747572650000000000000000006044820152606490fd5b634e487b7160e01b5f52601160045260245ffd5b5f198114610fb75760010190565b610f95565b634e487b7160e01b5f525f60045260245ffd5b601f8211610fdc57505050565b5f5260205f20906020601f840160051c83019310611014575b601f0160051c01905b818110611009575050565b5f8155600101610ffe565b9091508190610ff5565b9092916001600160401b038111610b02576110438161103d8454610a0a565b84610fcf565b5f601f82116001146110815781906110729394955f92611076575b50508160011b915f199060031b1c19161790565b9055565b013590505f8061105e565b601f19821694611094845f5260205f2090565b915f5b8781106110ce5750836001959697106110b5575b505050811b019055565b01355f19600384901b60f8161c191690555f80806110ab565b90926020600181928686013581550194019101611097565b90826040936080929796959760608552816060860152838501375f828285010152601f80199101168201019460208201520152565b1561112257565b60405162461bcd60e51b815260206004820152601060248201526f189bdd5b9d1e481b9bdd08199bdd5b9960821b6044820152606490fd5b1561116157565b60405162461bcd60e51b815260206004820152601060248201526f3737ba103137bab73a3c9037bbb732b960811b6044820152606490fd5b156111a057565b60405162461bcd60e51b815260206004820152600e60248201526d1b9bdd081a9d5919d959081e595d60921b6044820152606490fd5b156111dd57565b60405162461bcd60e51b8152602060048201526011602482015270185b1c9958591e48199a5b985b1a5e9959607a1b6044820152606490fd5b1561121d57565b60405162461bcd60e51b81526020600482015260146024820152730d2dcecc2d8d2c840eed2dcdccae440d2dcc8caf60631b6044820152606490fd5b8054821015611272575f5260205f209060011b01905f90565b634e487b7160e01b5f52603260045260245ffd5b1561128d57565b60405162461bcd60e51b815260206004820152601f60248201527f77696e6e6572206d757374206861766520612076616c69642072657665616c006044820152606490fd5b60405190606082018281106001600160401b03821117610b0257604052565b60405190604082018281106001600160401b03821117610b0257604052565b6001600160401b038111610b0257601f01601f191660200190565b6040519061133882610ae7565b5f8252565b3d15611367573d9061134e82611310565b9161135c6040519384610b07565b82523d5f602084013e565b606090565b1561137357565b60405162461bcd60e51b815260206004820152600e60248201526d1c185e5b595b9d0819985a5b195960921b6044820152606490fd5b156113b057565b60405162461bcd60e51b815260206004820152600d60248201526c0d2dcecc2d8d2c840d2dcc8caf609b1b6044820152606490fd5b826054969495939282370192835260601b6bffffffffffffffffffffffff1916602083015260348201520190565b1561141a57565b60405162461bcd60e51b81526020600482015260136024820152721c995d99585b081b9bdd081bdc195b881e595d606a1b6044820152606490fd5b906202a3008201809211610fb757565b1561146c57565b60405162461bcd60e51b81526020600482015260146024820152731c995d99585b081dda5b991bddc818db1bdcd95960621b6044820152606490fd5b156114af57565b60405162461bcd60e51b815260206004820152600e60248201526d185b1c9958591e481a9d5919d95960921b6044820152606490fd5b156114ec57565b60405162461bcd60e51b815260206004820152600c60248201526b32b6b83a3c9030b739bbb2b960a11b6044820152606490fd5b1561152757565b60405162461bcd60e51b815260206004820152600f60248201526e616e7377657220746f6f206c6f6e6760881b6044820152606490fd5b1561156557565b60405162461bcd60e51b81526020600482015260136024820152721b9bc818dbdb5b5a5d1b595b9d08199bdd5b99606a1b6044820152606490fd5b156115a757565b60405162461bcd60e51b815260206004820152601060248201526f185b1c9958591e481c995d99585b195960821b6044820152606490fd5b156115e657565b60405162461bcd60e51b815260206004820152601860248201527f72657665616c2077696e646f77207374696c6c206f70656e00000000000000006044820152606490fd5b1561163257565b60405162461bcd60e51b815260206004820152601960248201527f6e6f2076616c69642072657665616c7320746f206a75646765000000000000006044820152606490fd5b92919261168382611310565b916116916040519384610b07565b829481845281830111610111578281602093845f960137010152565b81601f820112156101115780516116c381611310565b926116d16040519485610b07565b8184526020828401011161011157610e0b91602080850191016104bd565b91909160608184031261011157604051906001600160401b03906060830182811184821017610b02576040528294815183811161011157816117329184016116ad565b84526020820151838111610111578161174c9184016116ad565b602085015260408201519283116101115760409261176a92016116ad565b910152565b9060a082820312610111578151801515810361011157926020830151906001600160401b039182811161011157836117a89186016116ad565b93604081015183811161011157846117c19183016116ad565b93606082015184811161011157816117da9184016116ad565b93608083015190811161011157610e0b92016116ef565b156117f95750565b60405162461bcd60e51b81526020600482015290819061181d9060248301906104de565b0390fd5b91909182516001600160401b038111610b02576118428161103d8454610a0a565b602080601f831160011461187e575081906110729394955f926118735750508160011b915f199060031b1c19161790565b015190505f8061105e565b90601f19831695611892855f5260205f2090565b925f905b8882106118cc575050836001959697106118b457505050811b019055565b01515f1960f88460031b161c191690555f80806110ab565b80600185968294968601518155019501930190611896565b906020610e0b9281815201906104de565b156118fc57565b60405162461bcd60e51b815260206004820152601760248201527f7375626d697373696f6e20706861736520636c6f7365640000000000000000006044820152606490fd5b1561194857565b60405162461bcd60e51b8152602060048201526014602482015273746f6f206d616e79207375626d697373696f6e7360601b6044820152606490fd5b1561198b57565b60405162461bcd60e51b815260206004820152601060248201526f195b5c1d1e4818dbdb5b5a5d1b595b9d60821b6044820152606490fd5b156119ca57565b60405162461bcd60e51b8152602060048201526011602482015270185b1c9958591e4818dbdb5b5a5d1d1959607a1b6044820152606490fd5b8054600160401b811015610b0257611a2091600182018155611259565b611a5557600190825181550190602081015115159060ff61ff0060408554930151151560081b1692169061ffff191617179055565b610fbc565b91908254600160401b811015610b0257611a7c90600194600182018155611259565b611a5557815181546001600160a01b0319166001600160a01b039190911617815560010190602080910151938451916001600160401b038311610b0257611acd83611ac78654610a0a565b86610fcf565b602091601f8411600114611aff57505081906110729394955f926118735750508160011b915f199060031b1c19161790565b95601f92919219841696611b16865f5260205f2090565b935f915b898310611b3957505050836001959697106118b457505050811b019055565b838501518655948501949381019391810191611b1a565b5f806020928381519101826108025af190611b6961133d565b9115611bbb57815182019060408382840193031261011157808301516001600160401b0390818111610111578383611ba3928701016116ad565b50604084015190811161011157610e0b9301016116ad565b81519101fdfea2646970667358221220765ca8b6f3a1d498f2314889f8dfa98b2130dd7da3e86baaca548ec77378ec1a64736f6c63430008180033",
  "linkReferences": {},
  "deployedLinkReferences": {},
  "immutableReferences": {},
  "inputSourceName": "project/contracts/AIJudgeCommitReveal.sol",
  "buildInfoId": "solc-0_8_24-96778c34e94c1cc98421fbc880280704877c1e3b"
}